:020000040800F2
:10000000B0040020F91A0008CD1A0008CF1A000821
:10001000D11A0008D31A0008D51A00080000000001
:10002000000000000000000000000000D71A0008D7
:10003000D91A000800000000DB1A0008DD1A0008C9
:10004000091B00080D1B0008111B0008151B0008E8
:10005000191B00081D1B0008211B0008251B000898
:10006000291B00082D1B0008311B0008351B000848
:10007000391B00083D1B0008411B0008451B0008F8
:10008000491B00084D1B0008511B0008551B0008A8
:10009000591B00085D1B0008611B0008E11A0008DD
:1000A000651B0008691B00086D1B0008711B000818
:1000B000751B0008791B00087D1B0008811B0008C8
:1000C000851B0008891B00088D1B0008911B000878
:1000D000951B0008991B00089D1B0008A11B000828
:1000E000A51B0008A91B0008AD1B0008B11B0008D8
:1000F000B51B0008B91B0008BD1B0008C11B000888
:10010000C51B0008C91B0008CD1B0008D11B000837
:10011000D51B0008D91B0008DD1B0008E11B0008E7
:10012000E51B0008E91B0008ED1B0008F11B000897
:10013000F51B00080000000000000000F91B00088B
:10014000FD1B0008011C0008051C0008091C000814
:100150000D1C0008111C0008151C0008191C0008C3
:100160001D1C0008211C0008251C0008291C000873
:100170002D1C0008311C0008351C00080000000080
:1001800000000000391C0008000000000000000012
:100190003D1C00080000000000000000411C000899
:1001A000000000000000000000000000451C0008E6
:1001B000491C00084D1C0008511C0008551C000873
:1001C000591C00082DE9F04F87B000F075FB00F0D6
:1001D000C2F9142200F0BBF900200590DFF85C069C
:1001E000016841F010010160026802F010020592FE
:1001F000002205990592036843F02003036001681B
:1002000001F02001059105990592036843F002036E
:100210000360016801F00201059105990592FF2133
:10022000036843F080030360006800F080000590DD
:100230000598DFF80C0600F03AFC00223F21DFF8B9
:10024000040600F034FCFF2100F078F9DFF8F00537
:1002500000F04CFB3F2100F071F9DFF8E80500F0F9
:1002600045FB4020DFF8E01500900191002202924A
:100270006946DFF8D80500F039FB4FF440700021E3
:100280000090019102916946DFF8B40500F02EFB61
:1002900000220021172000F049FC172000F063FC29
:1002A0001C2200F054F9DFF8A815DFF8A805086053
:1002B00043F67F62002088604A600846C72200211A
:1002C000C2600161816100F079FC08B100F0F2FACE
:1002D000DFF87C0500F0AEFC08B100F0EBFA082175
:1002E000DFF86C0500F006FD08B100F0E3FA7021BC
:1002F000009163220192002102910022049269463A
:10030000DFF84C0500F01AFD08B100F0D3FADFF871
:100310004005DFF8447500F091FF1022002102A88B
:1003200000F0C0FF082200F012F9DFF83005B860D5
:100330000F21F960002038614FF6FF717961B861D3
:10034000F861386207F1080000F038FC08B100F0ED
:10035000B1FA4FF48050029002A907F1080000F0B2
:1003600065FD08B100F0A6FA00210091019107F1A6
:100370000800694600F0A0FF08B100F09BFA07F101
:10038000080000F028FCB968002048620026834677
:10039000814600240025804608E0DFF8A8A400F08C
:1003A000C8F800221021504600F081FBB86C00F024
:1003B00014F900F0C7FF82464FF48071DFF8800423
:1003C00000F06FFB401E804156EAD072AAEB090193
:1003D00006D1332904D301264FF0000BD14639E072
:1003E000BA6C5BEAD0731CD140F2D173994218D336
:1003F00042F2107082424FF0010B0AD10021B96421
:10040000012200F090F80022202100F08FF8022055
:10041000F870B86CF0B1401EB864F878411EF970FD
:1004200018E016EAD07F15D0332913D300265FEAEF
:100430000B00D1460ED1521CBA640021F878DFF8C7
:1004400010A4401CF870504600F010FC00215046EB
:1004500000F0FDFB00F076FF82464FF40071DFF8FC
:10046000E00300F01EFB401E804154EAD072AAEB6C
:10047000080105D1332903D301240025D0463BE0F0
:10048000BA6C55EAD07319D140F2D173994215D3A1
:10049000012542F21070824208D10021B964002285
:1004A00000F041F800F045F80020F870B86C18B37F
:1004B0006438B864F878411EF9701DE014EAD07F02
:1004C0001AD0332918D300242800D04614D142F280
:1004D00010718A4208BFBC64B86C6430B8640021F3
:1004E000F878401CF870DFF8680300F0BFFB0021CB
:1004F000DFF85C0300F0ABFBF978C729BFF656AF15
:10050000480801EB90729208B1EB820018BF0128F5
:100510003FF443AF00222021CA4800F0C8FA01226C
:100520001021C84840E7DFF81CA31021504600F016
:10053000BEBA01222021504600F0B9BA0091012232
:100540000192002102910322039269467047002123
:10055000684600F0A7BE00B593B03422002106A87B
:1005600000F0A0FE1422002101A800F09BFE002054
:1005700000900123BA48016841F0805101600021D8
:10058000006800F0805000900098B648009101216A
:10059000026861F38F3202600222006800F440407A
:1005A000009006A8009906921021002209930A9152
:1005B0000C9200F016FF08B172B6FEE70F20019012
:1005C0000021029103910491059101A801F088F89E
:1005D00008B172B6FEE713B000BD2DE9F0478246C0
:1005E000DFF86082002200F065F800F071F800F09A
:1005F0006AF800F063F80A2001220821BAFBF0F73C
:10060000994E9A4D00FB17AA5FFA8AFAB7FBF0F4ED
:1006100000FB1477FFB2B4FBF0F900FB1944E4B21D
:100620000A23B9FBF3F300FB139900F044F8316897
:1006300015F80A0000F039F8316815F80A0081430E
:10064000316000F03BF80122042100F034F83168F9
:10065000E85D00F02AF83168E85D8143316000F020
:1006600032F80122022100F026F83168285D00F0FE
:100670001CF83168285D8143316000F029F80122BF
:1006800000F018F85FFA89F9316815F8090000F0F0
:100690000CF8316815F809008143404631600022AA
:1006A000BDE8F047012100F002BA014331600120AA
:1006B00001F0A6B80121404600F0F9B90022082156
:1006C000404600F0F4B900220421404600F0EFB9A2
:1006D00000220221404600F0EAB9402800D07047CD
:1006E000F8B55D4CA568E06C22786E6A41F64177FA
:1006F000BE420146134602D30021002315E0012724
:10070000C2F11F0607FA06F66F6A521C40F2A56C8A
:10071000674528BF46EA000106D26D6A40F2E93714
:10072000BD4202D320EA060113462370E16420781B
:10073000202840F07F800846C143020AA170627001
:10074000A1786278914208BF2065206D4849404DEC
:100750003C4E884242F210772BD04649884260D006
:10076000454988420CD04549884252D04449884284
:1007700038D04449884219D04349884241D057E093
:1007800000226271A36CBB420AD11021304600F0F6
:100790008EF900F07BF80020E07001216171A06407
:1007A0006079002844D1A06C643016E0A06C6438F5
:1007B0001AE000202071A16CB94209D100F075F84F
:1007C00000F069F80220E070012121710020A0648E
:1007D000207900282CD1A06C401CA064E078401C3B
:1007E000E07005E0A06C401EA064E078411EE1705E
:1007F0000021284600F03AFA0021284600F027FAA6
:1008000016E0A06CA0B900F04BF800F03FF8002013
:100810000DE0A06C60B900F048F800F03CF8022050
:1008200005E000F03DF800F040F8A764C820E07053
:10083000002121700020A1684862F1BD30380240DB
:100840000010024000140240000011100004024099
:100850007000002000440140000000200000014022
:100860004038024000700040141002405400002044
:100870007F806F9077886F905FA06F9053AC6F9080
:100880003FC06F901FE06F901AE56F90012220210A
:10089000304600F00CB901221021304600F007B9B3
:1008A00000221021304600F002B9002220213046FB
:1008B00000F0FDB872B6FEE780B50B48016841F460
:1008C00000710160026842F480620260016841F4D4
:1008D00080710160032000F01CF9002000F0A4FFEB
:1008E00000F072FC002002BD003C02402DE9F84FF0
:1008F0000D4600267549764A0F23044601202F68CD
:10090000B04000EA0708804540F0C5804FEA460C39
:10091000032707FA0CF76FEA070E6F68012F18BF5D
:10092000022F03D0112F18BF122F12D1A768D5F8AC
:100930000C900EEA070709FA0CF949EA0707A760C5
:10094000676827EA00006F68C7F30017B7403843AD
:100950006060E068AF680EEA000007FA0CF7384301
:10096000E060B0006F68022F18BF122F12D1F70895
:1009700004EB870700F01C09D7F820A003FA09FB55
:100980002AEA0B0AD5F810B00BFA09F949EA0A0964
:10099000C7F8209027680EEA070E2F7907F00307A3
:1009A00007FA0CF747EA0E0CC4F800C06F68FF00A6
:1009B00071D5002700974FEA960CD2F800E04EF46C
:1009C000804EC2F800E000F00C00176807F4804782
:1009D0000097DDF800E03F4F57F82C7003FA00FE57
:1009E00027EA0E0E3C4FBC4208BF00271DD03B4FEC
:1009F000BC4208BF012718D0394FBC4208BF0227AC
:100A000013D0384FBC4208BF03270ED0364FBC422C
:100A100008BF042709D0354FBC4208BF052704D0C2
:100A2000334FBC420CBF0627072707FA00F040EA05
:100A30000E00DFF8A0E04EF82C006FEA0800D1F8B5
:100A400000C06F6800EA0C0CFF0348BF48EA0C0CBA
:100A5000C1F800C0D1F804C06F6800EA0C0CBF03F5
:100A600048BF48EA0C0CC1F804C0D1F808C06F6850
:100A700000EA0C0CFF0248BF48EA0C0CC1F808C0A1
:100A8000D1F80CC000EA0C0C6868800248BF48EA44
:100A90000C0CC1F80CC0761C0F2E7FF62FAFBDE8F2
:100AA000F18F0069084018BF0120C0B2704702B939
:100AB0000904816170470F4A136801460B421CBF4D
:100AC0001160FFF70ABE704700000000003C0140C3
:100AD000443802400838014000000240000402404F
:100AE00000080240000C02400010024000140240C6
:100AF00000180240143C01400901020002D42948B8
:100B000081547047284B02F00F021A4402F8041C6B
:100B10007047264B19684FF6FF020002114000F49F
:100B2000E0600843224908431860704770B51F4BC6
:100B30001C68C4F302230124C3F10705052D2EBF51
:100B40000F2504FA05F56D1E1E1D072E34BF002368
:100B5000DB1E2940994004FA03F3BDE870405B1E98
:100B60001A401143C8E7010007D4012200F01F0119
:100B7000104B8A40400943F82020704710B5401EB2
:100B8000B0F1807F01D3012010BD0B4C60600F21BC
:100B90004FF0FF30FFF7B0FF0021A1600720206079
:100BA000002010BD00E400E018ED00E00CED00E0D6
:100BB0000000FA0500E100E010E000E038B50400B4
:100BC00001D1012032BD00F091F818B900F08AF887
:100BD00000F014FB14E0022180F83D1002689168D7
:100BE00001F00701062905D001680A680B4642F0AA
:100BF00001021A60FFE7012180F83D1000207047D4
:100C000002206870211D206800F06EF901206870D4
:100C1000002032BD03D1416C41F400414164816840
:100C200001F00701062903D0016841F001010160CC
:100C3000002010BD38B5040001D1012032BD00F004
:100C400055F818B900F04EF800F00EFED8E710B5D0
:100C500000F007F800F032F81CBFDFF8D82090420F
:100C6000D8E704460122206800F083BA38B500F0C6
:100C700020F800F028F81CBFDFF8B850A84206D1D1
:100C8000036A134204BF036A0B4200F025F8206890
:100C9000036A134204BF006A084205D1216808684C
:100CA00040080A4640001060012084F83D00002002
:100CB00032BD04460022206800F05BBA2068DFF8ED
:100CC0007810884270472068DFF86C3040F2444169
:100CD00041F211129842704703D1436C23F4004350
:100CE00043647047002129702046704704F13C0599
:100CF0006878704770B504000E4601D1012070BDC0
:100D0000FFF7F4FF18B9FFF7EDFF00F0AEFD02208A
:100D10006870211D206800F0E7F82068016821F064
:100D200008010160206802681643066001206870AF
:100D3000002070BD000401400000014070B500F0CB
:100D400063F801D1022070BD00F06BF832B1042AC3
:100D500017D0082A28D00C2A39D04AE03068294612
:100D600000F00DF93068816941F0080100F048F8A1
:100D700021F00401816131688A69286902438A612E
:100D800037E03068294600F026F93068816941F47F
:100D9000006100F035F821F4806100F031F82A6933
:100DA00041EA0221816124E03068294600F043F9DC
:100DB0003068C16941F0080100F01EF821F004011B
:100DC000C1613168CA6928690243CA6111E03068AB
:100DD000294600F05FF93068C16941F4006100F014
:100DE0000BF821F4806100F007F82A6941EA02213A
:100DF000C16100F010F870BDC1613068C169704711
:100E00008161306881697047064606F13C040D46F1
:100E10002078012870470120607000212170002097
:100E200070470120207002216170704738B500F0D2
:100E30004FF801D1022032BD0120207002226270E1
:100E4000DFF898022A6893680340936008680200FC
:100E500018BF10282DD0202818BF302829D04028AE
:100E600023D0502816D0602818D0702803D0B0F5B1
:100E7000005F07D021E000F026F82868816841F083
:100E8000770105E000F01FF82868816841F480418F
:100E9000816012E000F013F850210BE0CA68496845
:100EA000286800F042F9602104E000F008F84021D1
:100EB00000E00146286800F04AF90FE00000CA6827
:100EC0004968286822E1CB684A688968286846E151
:100ED000054605F13C042078012870470120607028
:100EE00000212170002032BDF0B505687C4C7D4B9F
:100EF0007D4E7E4FDFF8F8C1A04218BFB0F1804FA1
:100F000007D0604518BFB84203D0B04218BF98421E
:100F10000DD14A6825F070051543A04218BFB0F105
:100F2000804F17D060451CBFB842B04212D09842E3
:100F30001CBF704A90420DD06F4EB0421CBF6F4A2A
:100F4000904207D06E4EB0421FBF6E4A90426E4E26
:100F5000B04203D1CA6825F4407515434A6925F0AB
:100F6000800515430560A0428D68C5620A688262EB
:100F700012BF98420969016301224261F0BDF0B5D8
:100F8000026A574F520852000262066A4468856935
:100F90000B688A6825F0730526F002061D43164388
:100FA000504BB84218BF984207D1CA6826F00806CD
:100FB0001643B84226F0040601D0984205D14B6989
:100FC0008A6924F440741C43144344608561496871
:100FD00041630662F0BDF0B5026A414E22F0100294
:100FE0000262B042056A436884690A6824F4E644F0
:100FF00044EA02248A6825F0200545EA0215394AA8
:1010000018BF904208D1CF6825F0800545EA071542
:10101000B04225F0400501D0904206D14E698A6960
:1010200023F44063164343EA8603436084614968BE
:1010300081630562F0BDF0B5026A22F4807202623B
:10104000056A4368C4698E680A6825F4007524F04F
:10105000730445EA06251443214E224AB04218BFC4
:10106000904208D1CF6825F4006545EA0725B042D3
:1010700025F4806501D0904206D14E698A6923F437
:101080004053164343EA06134360C4614968C16391
:101090000562F0BD70B5026A114E22F48052026200
:1010A000B042046A4268C3690D6823F4E64343EA28
:1010B00005238D6824F4005444EA05341CBF094D0F
:1010C000A84204D14D6922F4804242EA851242606E
:1010D000C36149680164046270BD00008800FFFFBD
:1010E0000000014000040140000C004000080040E6
:1010F000000400400040014000440140004801401D
:1011000000180040001C00400020004010B5036A99
:10111000046A64086400046223F00A03846924F00A
:10112000F00444EA021484612EE010B5036A23F04F
:10113000100303628369046A23F4704343EA0233B1
:1011400024F0A004836144EA0114046210BD8268A3
:1011500022F07002114341F007018160704710B521
:10116000846824F47F442143114341EA03218160D0
:1011700010BD10B501F01F01036A01248C40A34388
:10118000036202FA01F1036A1943016210BD30B52E
:10119000016884684218416802EB5103C90703D50E
:1011A0004C4401E0491C08D19A4218BF12F9011BB6
:1011B00001D10C3030BD12F8015B002904F8015B4D
:1011C000F0D4491EF7D5EFE781B00020009000224F
:1011D0002E48416841F480414160416801F48041FA
:1011E000009100990092036843F080530360006807
:1011F00000F080500090009801B0704781B0006806
:10120000234A2449904209D1002000900A6842F004
:1012100001020A60086800F001000BE01E4A9042DB
:101220000AD1002000900A6842F400320A6008687F
:1012300000F400300090009801B0704710B586B0FF
:1012400004461422002101A800F02CF8216812485D
:10125000814218D10022114800920222016841F017
:10126000200101604021006800F0200000900098FB
:101270000B480191029200210391049103210591F1
:1012800001A9FFF733FB06B010BD00004038024053
:101290000000014044380240004401403038024020
:1012A0000014024010B5044610460A460146204686
:1012B00000F0DCFA204610BD70B500F13C031A784E
:1012C000012A01D1022070BD01221A7002245C7033
:1012D00005686E68AC680A6826F0700616436E6092
:1012E00002681148824218BFB2F1804F11D00F48F6
:1012F00082421CBF0E4DAA420BD00E4882421CBF38
:101300000D4DAA4205D00D4882421CBF0C4DAA4289
:1013100004D1486824F0800404439460012159708A
:101320000020187070BD0000000001400004004063
:1013300000080040000C0040000401400040014053
:101340000018004001484068704700BF600000205E
:1013500000200860FFF7F6BF2DE95041DFF8744325
:10136000DFF868636068DFF8688300F00C00042829
:1013700004D0082804D00C2815D027E0404626E0E9
:1013800000F027F847BFC0F38816A8FB0601C0F39A
:101390008818A6FB080100F09DFA2168C1F30141FD
:1013A000491C49000FE000F014F847BFC0F388164D
:1013B000A8FB0601C0F38818A6FB080100F08AFA12
:1013C0002168C1F30271B0FBF1F000E03046BDE8E6
:1013D00050810023226820684102206802F03F0209
:1013E00070472DE9F8430646B24D3078C1074FD516
:1013F00000F064F904280DD000F060F9082802D14B
:101400006868410206D400F059F90C280AD16868CE
:10141000410207D5286881033AD57068002837D182
:10142000012044E17068B0F5803F04D1286840F4A1
:101430008030286011E0B0F5A02F286806D140F474
:1014400080202860296841F4803105E020F4803054
:101450002860296821F480212960706860B1FFF755
:1014600071FF04462868810312D4FFF76BFF001B4D
:101470006528F7D303201AE1FFF764FF04462868C4
:10148000810305D5FFF75EFF001B6528F7D3F1E761
:101490003078914F81071ED5A86810F00C0F0DD041
:1014A00000F00CF9082802D16868410206D500F066
:1014B00005F90C2823D16868410220D428688107E7
:1014C00002D5F0680128ABD12968306921F0F80114
:1014D00041EAC00129603178080741D570697F4928
:1014E00090B301220A60FFF72DFF0446686F810761
:1014F00036D4FFF727FF001B0228F7D9BAE7F068B8
:10150000A8B101213960FFF71DFF04462868810753
:1015100005D4FFF717FF001B0228F7D9AAE72868B0
:10152000316920F0F80040EAC1002860D3E7386054
:10153000FFF708FF044629688807CCD5FFF702FFAC
:10154000001B0228F7D995E7FFF703FF0446686FF1
:10155000810705D5FFF7F6FE001B0228F7D989E7BA
:101560003078410760D5286C0024C1000BD40020DE
:1015700000900124296C41F080512964286C00F00E
:10158000805000900098DFF83081D8F80000C10545
:1015900013D4D8F8000040F48070C8F80000FFF7BA
:1015A000D1FE8146D8F80000C10506D4FFF7CAFE77
:1015B000A0EB09000228F5D95CE7B068012805D046
:1015C0000528286F06D140F004002867286F40F0F6
:1015D000010005E0400840002867286F20F0040063
:1015E000286741F28938B06860B1FFF7ABFE8146E9
:1015F000286F810713D4FFF7A5FEA0EB0900404533
:10160000F6D337E7FFF79EFE8146286F810706D5A0
:10161000FFF798FEA0EB09004045F6D32AE71CB17E
:10162000286C20F080502864B06900283ED0A9685A
:1016300001F00C0108293FF4F3AE02282AD100F092
:1016400041F804462868810105D5FFF77BFE001BA1
:101650000228F7D90EE7F069316A726A0843B16A65
:10166000490840EA8210491E40EA0140F16A326BA3
:1016700040EA016040EA02706860012000F023F84F
:1016800004462868810111D4FFF75CFE001B022884
:10169000F7D9EFE600F016F804462868810105D571
:1016A000FFF750FE001B0228F7D9E3E60020BDE853
:1016B000F28300000038024000700040A86800F08B
:1016C0000C00704700203866FFF73CBE0024F40091
:1016D00040787D010438024000004742800E4742B6
:1016E0002DE9F04104000F4654D0404E306800F020
:1016F0000F00B84202D200F073F84BD120683C4D85
:10170000810712D5400703D5A96841F4E051A960CB
:101710002078010703D5A86840F46040A860A96854
:10172000A06821F0F0010143A9602178C80729D5FC
:101730006068012802D129688A0305E0022818BFE1
:10174000032803D129688A0103D423E029688A0782
:1017500020D5A968890840EA8100A860FFF7F2FD5A
:101760008046A868616800F00C00B0EB810F09D0DA
:10177000FFF7E8FDA0EB080041F289318842F0D381
:1017800003202BE0306800F00F00874204D200F005
:1017900027F801D0012021E02078410705D5AA686B
:1017A000E06822F4E0520243AA602178080706D5D7
:1017B000A968206921F4604141EAC001A960FFF7EE
:1017C000CBFDAA680B490C4BC2F30312895CC840DD
:1017D00018600A48006800F027F80020BDE8F08192
:1017E0003770316801F00F01B9427047003C024088
:1017F00000380240FC1900086C000020680000203E
:1018000038B50446FFF79EFD14F1010F054602D0DE
:10181000044801786418FFF795FD401BA042FAD3F5
:1018200031BD00BF6000002038B50D4D0D4B2A784A
:1018300004464FF47A711868B1FBF2F2B0FBF2F093
:10184000FFF79CF950B9102C08D2002221464FF026
:10185000FF30FFF76BF9AC60002032BD012032BDD4
:10186000600000206C0000207047704762F30F2278
:1018700062F31F42401810F0030308D0C91A1FD3A7
:10188000DB0748BF00F8012D28BF20F8022D130008
:1018900030B414461546103928BF20E93C00FAD868
:1018A000490728BF20E90C0048BF40F8042D8900F3
:1018B00028BF20F8022D48BF00F8012D30BC70472A
:1018C000C91818BF00F8012DCB0728BF00F8012D5B
:1018D00070470000D3BBD9B1B2F5803F5BD2022A7A
:1018E0001ED98C46B1FBF2F102FB11C31B0443EA83
:1018F0001043B3FBF2FC02FB1C3380B240EA03430B
:10190000B3FBF2F002FB103240EA0C4000237047B8
:10191000022A05D98446B0FBF2F002FB10C27047E0
:101920004AB105D100F0010249085FEA3000704772
:1019300000220023704700F051B80B000200002184
:1019400000207047F7D3002200237047904271EBCC
:10195000030CF2D370B5B1FA81F4B3FA83F52C1B02
:10196000A340C4F1200532FA05F63343A2405FF0EC
:101970000046E64002E05B085FEA3202841A71EB3F
:10198000030524BF204629467641F4D302000B000C
:101990003000002170BD70B5B1FA81F4B2FA82F561
:1019A000C4F120046419B4F12006DAD3B2405FF028
:1019B0000044F440002502E052085FEA3303C61AEF
:1019C00071EB020E24BF3046714664416D41F3D382
:1019D00002000B002000290070BD000070470000CD
:1019E0000448054A016841F4700101604FF000604D
:1019F0001060704788ED00E008ED00E00000000096
:101A000000000000010203040607080910B5074999
:101A100079441831064C7C44163404E00A68081DE9
:101A2000114488470146A142F8D110BD2C000000A6
:101A3000380000004EF68851CEF20001086840F4EC
:101A400070000860BFF34F8FBFF36F8F4FF00170CE
:101A5000E1EE100A7047000037F7FFFF00020000B8
:101A6000480000000000002000F00DF8002801D020
:101A7000FFF7CCFFAFF300800020AFF30080FEF74C
:101A8000A1FB00F002F80120704700F001B800004F
:101A90000746384600F002F8FBE7000080B5AFF3D8
:101AA0000080024A11001820ABBEFBE726000200AE
:101AB0000548014603B4684680F30988AFF3008007
:101AC000FFF7B8FFFFF7D0FFA5EDF5FEFEE7FEE755
:101AD000FEE7FEE7FEE770477047704700F004B886
:101AE0004020FEF7E8BF00000248416802788A18EB
:101AF000426070476000002001488047014800476D
:101B0000E1190008B11A0008FFF7FEBFFFF7FEBF9A
:101B1000FFF7FEBFFFF7FEBFFFF7FEBFFFF7FEBFF9
:101B2000FFF7FEBFFFF7FEBFFFF7FEBFFFF7FEBFE9
:101B3000FFF7FEBFFFF7FEBFFFF7FEBFFFF7FEBFD9
:101B4000FFF7FEBFFFF7FEBFFFF7FEBFFFF7FEBFC9
:101B5000FFF7FEBFFFF7FEBFFFF7FEBFFFF7FEBFB9
:101B6000FFF7FEBFFFF7FEBFFFF7FEBFFFF7FEBFA9
:101B7000FFF7FEBFFFF7FEBFFFF7FEBFFFF7FEBF99
:101B8000FFF7FEBFFFF7FEBFFFF7FEBFFFF7FEBF89
:101B9000FFF7FEBFFFF7FEBFFFF7FEBFFFF7FEBF79
:101BA000FFF7FEBFFFF7FEBFFFF7FEBFFFF7FEBF69
:101BB000FFF7FEBFFFF7FEBFFFF7FEBFFFF7FEBF59
:101BC000FFF7FEBFFFF7FEBFFFF7FEBFFFF7FEBF49
:101BD000FFF7FEBFFFF7FEBFFFF7FEBFFFF7FEBF39
:101BE000FFF7FEBFFFF7FEBFFFF7FEBFFFF7FEBF29
:101BF000FFF7FEBFFFF7FEBFFFF7FEBFFFF7FEBF19
:101C0000FFF7FEBFFFF7FEBFFFF7FEBFFFF7FEBF08
:101C1000FFF7FEBFFFF7FEBFFFF7FEBFFFF7FEBFF8
:101C2000FFF7FEBFFFF7FEBFFFF7FEBFFFF7FEBFE8
:101C3000FFF7FEBFFFF7FEBFFFF7FEBFFFF7FEBFD8
:101C4000FFF7FEBFFFF7FEBFFFF7FEBFFFF7FEBFC8
:101C5000FFF7FEBFFFF7FEBFFFF7FEBFFD0000C8A6
:101C6000BC00011027F6000C3F065B4F666D7D0738
:101C70007F6F000001F9000010FC000124F4BF0098
:0400000508001AB124
:00000001FF
